:100000000C943C010C946D010C946D010C946D01E9
:100010000C946D010C946D010C946D010C946D01A8
:100020000C946D010C946D010C946D010C946D0198
:100030000C946D010C946D010C946D010C946D0188
:100040000C946D010C94F50E0C946D010C946D01E3
:100050000C946D010C946D010C946D010C94210EA7
:100060000C946D010C946D010C946D010C946D0158
:100070000C946D010C946D010C946D010C946D0148
:100080000C94C70E0C946D010C946D010C946D01D1
:100090000C946D010C946D010C946D010C946D0128
:1000A0000C946D010C946D010C94990E0C946D01DF
:1000B0000C946D010C946D010C946D010C946B0EFD
:1000C0000C946D010C946D010C946D010C946D01F8
:1000D0000C946D010C946D010C946D010C946D01E8
:1000E0000C946D010C94A6020C948A020C949F0649
:1000F0000C9483110C9448080C9492020C9495096A
:100100000C9484020C94A0060C941A020C94D7024E
:100110000C946B020C949C020C94310A0C946F02A8
:100120000C94AA020C9418140C9448030C946502C5
:100130000C9408030C94A5020C9480020C948E027B
:100140000C9498020C94A0020C947A020C94730202
:100150000C94770200002100240027002A002D00C3
:100160003000330001010000040107010A01000012
:100170002200250028002B002E003100340002014F
:100180000000050108010B010000200023002600EB
:1001900029002C002F00320000010000030106019D
:1001A00009010505050507050808080802020202FD
:1001B0000A0A080804040404010101010101010103
:1001C0000303030303030303040707070C0C0C0CCE
:1001D0000C0C0C0C020202020606060606060606B7
:1001E0000B0B0B0B0B0B0B0B010210202008081044
:1001F0002040102040800201020108040201010297
:10020000040810204080804020100804020180046F
:1002100002018040201008040201080402010102CA
:1002200004081020408001020408102040800000D3
:100230000A0B02090C0D0E08070304010000000060
:1002400000000000000000000000000000000000AE
:10025000000000000000000000001211100000006B
:10026000000000000000000000000000000000008E
:10027000000000008311181411241FBECFEFD1E23B
:10028000DEBFCDBF00E00CBF14E0A0E0B2E0E0E0D4
:10029000FEE200E00BBF02C007900D92A634B1074A
:1002A000D9F726E0A6E4B4E001C01D92AA39B2074E
:1002B000E1F711E0CBE3D1E000E006C021970109AE
:1002C000802FFE010E94C714CA33D10780E00807BF
:1002D000A9F70E943E0F0C94EE160C94000096E0D5
:1002E000899FD0011124A15FB94F90967C936E93A2
:1002F0005F9791E091969C939197E0917C06F091A5
:100300007D0690917B06992339F0309751F0811149
:1003100008C080912B061994309719F05C968C9147
:10032000FACF0895CF92DF92EF92FF920F931F932F
:1003300096E0899FF0011124E15FF94F11A2278D0A
:1003400030A12130310551F178F02230310509F426
:1003500051C02330310509F452C01F910F91FF9015
:10036000EF90DF90CF9008956623B9F361E070E0DD
:100370000E946F012FB7F89480910B0690910C06A4
:10038000A0910D06B0910E062FBF80936706909343
:100390006806A0936906B0936A06DFCF9FB7F8940A
:1003A000C0900B06D0900C06E0900D06F0900E0663
:1003B0009FBF0091670610916806209169063091F1
:1003C0006A06C01AD10AE20AF30A0091790610916E
:1003D0007A0630E020E00C151D052E053F0550F48F
:1003E00062E070E01F910F91FF90EF90DF90CF904F
:1003F0000C946F016111B1CF63E070E0F3CF70E056
:1004000060E0F0CFCF93DF93009789F0EC01E091AB
:100410000706F0910806309731F06091050670915B
:100420000606CE011995D0930606C0930506DF9106
:10043000CF910895AF92BF92CF92DF92EF92FF9249
:100440000F931F93CF93DF936C017B018B01040FFC
:10045000151FEB015E01AE18BF08C017D10759F098
:100460006991D601ED91FC910190F081E02DC601DA
:100470001995892B79F7C501DF91CF911F910F91C4
:10048000FF90EF90DF90CF90BF90AF900895815094
:10049000823108F05AC0E82FF0E08827ED5AFD4F6E
:1004A0008F4F0C94C7147302770265026B026F02C0
:1004B000A5027A02800284028A028E0292029802C7
:1004C0009C02A502A002A602AA02809180008F775A
:1004D000809380000895809180008F7DF9CF809176
:1004E0008000877FF5CF84B58F7784BD089584B56C
:1004F0008F7DFBCF8091B0008F778093B0000895FF
:100500008091B0008F7DF9CF809190008F7780939C
:1005100090000895809190008F7DF9CF8091900098
:10052000877FF5CF8091A0008F778093A0000895FA
:100530008091A0008F7DF9CF8091A000877FF5CFBB
:10054000809120018F778093200108958091200170
:100550008F7DF9CF80912001877FF5CFCF93DF93F7
:10056000282F30E0F901E25DFD4F8491F901E85157
:10057000FE4FD491F901EE55FE4FC491CC23A1F06A
:1005800081110E944702EC2FF0E0EE0FFF1FE857A9
:10059000FE4FA591B491EC91ED2381E090E009F438
:1005A00080E0DF91CF91089580E090E0FACF862F30
:1005B0000C94AE021F93CF93DF93282F30E0F90104
:1005C000E25DFD4F8491F901E851FE4FD491F901AC
:1005D000EE55FE4FC491CC23A9F0162F81110E9435
:1005E0004702EC2FF0E0EE0FFF1FE259FE4FA591FE
:1005F000B4918FB7F894EC91111108C0D095DE2317
:10060000DC938FBFDF91CF911F910895DE2BF8CF40
:10061000862F642F0C94DA02CF93DF9390E0FC01D5
:10062000E851FE4F24918E559E4FFC018491882302
:10063000C9F090E0880F991FFC01EC5AFE4FA5917C
:10064000B491FC01E259FE4FC591D49161110DC0E6
:100650009FB7F8948C91209582238C9388812823CE
:1006600028839FBFDF91CF910895623051F49FB7E7
:10067000F8943C91822F809583238C93E8812E2BD4
:10068000EFCF8FB7F894EC912E2B2C938FBFEACF3E
:10069000862F642F0C940C036F927F928F929F92FF
:1006A000AF92BF92CF92DF92EF92FF920F931F9380
:1006B000CF93DF9381E080937B068FB7F8944091CE
:1006C0000B0650910C0660910D0670910E068FBFBF
:1006D00080916B0690916C06A0916D06B0916E06AC
:1006E000481B590B6A0B7B0B80917706909178061B
:1006F000B0E0A0E084179507A607B70708F01DC172
:10070000C0E080917506C81760F4E0917106F09121
:100710007206EC0FF11D62E080810E940C03CF5F36
:10072000F0CF712C812C912C54018394809176060A
:10073000781608F05FC0072D10E0E0917306F09185
:100740007406E00FF11F61E080810E940C03E091CC
:100750007306F0917406E00FF11F60E080810E9443
:10076000DA02D501C401072C04C0880F991FAA1F03
:10077000BB1F0A94D2F76C017C01E094F094612CC9
:10078000809175066816F8F4C62DD0E0E0917106E8
:10079000F0917206EC0FFD1F80810E94AE0224963C
:1007A000CC0FDD1FC15FD94F892B41F4888199811E
:1007B0008C299D29998388836394E2CF88819981CC
:1007C0008E219F21F7CFE0917306F0917406E00F20
:1007D000F11F61E080810E94DA028091730690919E
:1007E0007406080F191F60E0F80180810E940C0355
:1007F00073949CCFCFE0D6E0FE018FEF9FEF278D63
:1008000030A1232B21F4148E968F858F11A236965A
:1008100026E0EB34F20799F7F12C96E0D92E80917F
:100820007506F81608F050C0E12C0F2D10E0000FEF
:10083000111F095E194F20917606E21608F042C09A
:10084000F801608171810E2C02C0769567950A943B
:10085000E2F7F29E900111242E0D311DEFE0F6E03B
:1008600080E0458D568D2417350709F46AC08F5FE7
:1008700036968A30B1F760FF23C0EFE0F6E090E0F3
:1008800080E0448D411117C0E0916F06F091700631
:10089000E20FF31F4081D89EF001D99EF00D112484
:1008A000E15FF94F448F368F258F10A2178E61E0DC
:1008B0000E94920105C0019636968A30910509F78B
:1008C000E394B9CFF394ABCF80E099A19111892F34
:1008D0002696F6E0CB34DF07C1F79FB7F894409136
:1008E0000B0650910C0660910D0670910E069FBF8D
:1008F00040936B0650936C0660936D0670936E0682
:100900008823D9F0809130068823B9F080912E0693
:1009100090912F06019789F480912B06DF91CF915A
:100920001F910F91FF90EF90DF90CF90BF90AF900D
:100930009F908F907F906F90089510927B0680E03B
:10094000EDCF6170B5CF3FB7F894809108059091D5
:100950000905A0910A05B0910B0526B5A89B05C015
:100960002F3F19F00196A11DB11D3FBFBA2FA92F2E
:10097000982F8827BC01CD01620F711D811D911D2B
:1009800042E0660F771F881F991F4A95D1F7089597
:100990008F929F92AF92BF92CF92DF92EF92FF928F
:1009A0004B015C010E94A3046B017C010E94A30423
:1009B0006C197D098E099F09683E73408105910578
:1009C000A8F321E0821A9108A108B10888EEC80EA8
:1009D00083E0D81EE11CF11C81149104A104B10430
:1009E00029F7FF90EF90DF90CF90BF90AF909F904E
:1009F0008F9008958F929F92AF92BF92FF920F9324
:100A00001F93CF93DF93FC01F0808FE28F1508F4E2
:100A10004AC0828108E512E0081B110987FD139581
:100A2000000F111F000F111F8181C8E8D0E0C81B03
:100A3000D10987FDD395CC0FDD1FCC0FDD1F4E01F3
:100A40000D2E000CAA08BB089801012E000C440BC7
:100A5000550B281939094A095B09DB010E948214E8
:100A600024EB30E040E050E00E945814820E931EC8
:100A7000A41EB51E8C169D062CF0E801801691066A
:100A80000CF4E4012297CC0FDD1F2FB7F8948F2DC3
:100A900090E0FC01EE0FFF1FE80FF91FE958FB4F34
:100AA000D283C1832FBFDF91CF911F910F91FF9010
:100AB000BF90AF909F908F9008951F93CF93DF9337
:100AC000EC01162F8881803308F04EC061E0812F41
:100AD0000E940C038881282F30E0F901EE0FFF1FE0
:100AE000E20FF31FE958FB4F1F736081607C612B9D
:100AF000608319821A822CE0622F0E94BB14829FAD
:100B0000B001112430E020E0AB01420F531FFA0185
:100B1000EE0FFF1FE40FF51FE958FB4F908196FD84
:100B200016C02F5F3F4F2C30310571F7813009F52A
:100B30001092800082E080938100109285001092D4
:100B40008400B19A80916F00826080936F00E88189
:100B50008E2F90E0FC01EE0FFF1FE80FF91FE95800
:100B6000FB4F8081806480838881DF91CF911F91CA
:100B70000895823061F41092900080939100109259
:100B800095001092940088BB80937100E0CF833071
:100B900069F41092A00082E08093A1001092A50059
:100BA0001092A40089BB80937200D1CF8111CFCF66
:100BB0001092200182E08093210110922501109271
:100BC00024018ABB80937300C2CFAF92BF92CF92B1
:100BD000DF92EF92FF920F931F93CF93DF936B01FE
:100BE0007A01EC01CE58DB4F28813CE0389F800130
:100BF000399F100D1124A0907604B12C27FF1FC03F
:100C0000FB011182108288818F5F8883888198011F
:100C1000280F311D87FD3A95F6012A153B051CF476
:100C200088818C30C4F180819181049680349C4904
:100C300008F473C0F60180819181049670C08881A8
:100C40009801280F311D87FD3A952A153B05DCF6E2
:100C50008881A801480F511D87FD5A95FA01EE0FB2
:100C6000FF1FE40FF51FE958FB4F808186FFCBCFB4
:100C70008881F801E80FF11D87FDFA95CF01EE0F8D
:100C8000FF1FE80FF91FE958FB4F808160E08F7369
:100C90000E94DA02B8CF808191812881A801420F99
:100CA000511D27FD5A959A01FA01EE0FFF1FE20F21
:100CB000F31FE958FB4F21813281820F931FF70107
:100CC0009183808388819801280F311D87FD3A9593
:100CD000F901EE0FFF1FE20FF31FE958FB4F808170
:100CE00086FF22C08881080F111D87FD1A95F80123
:100CF000EE0FFF1FE00FF11FE958FB4F808161E00D
:100D00008F73DF91CF911F910F91FF90EF90DF9044
:100D1000CF90BF90AF900C94DA0280E49CE9F70189
:100D2000918380838FEF8883DF91CF911F910F9103
:100D3000FF90EF90DF90CF90BF90AF90089508950F
:100D400090E080E008958F929F92AF92BF92CF92F1
:100D5000DF92EF92FF920F931F93CF93DF9300D018
:100D6000CDB7DEB769837A838B838A018B8158E59F
:100D7000C52E52E0D52EC81AD10887FDD394CC0CCD
:100D8000DD1CCC0CDD1C0D2C000CEE08FF088A814C
:100D900078E8872E912C881A910887FD9394880C07
:100DA000991C880C991C092C000CAA08BB08898185
:100DB0008F3F09F44EC090E0FC01EE0FFF1FE80FDB
:100DC000F91FE958FB4F8181928133E0880F991F09
:100DD0003A95E1F7B0E0A0E044E0B595A795979586
:100DE00087954A95D1F702969C012F5F3F4F032EBE
:100DF000000C440B550B281939094A095B09A4EB6F
:100E0000B0E00E947714A7019601281939094A0910
:100E10005B090E945814B801CE010196243B3105AC
:100E2000D9F40E945D0570E060E0CE0101960E9459
:100E3000FA040F900F900F90DF91CF911F910F91B7
:100E4000FF90EF90DF90CF90BF90AF909F908F90EA
:100E5000089590E080E0C8CF0E945D0564EB70E0EB
:100E6000E4CFFB0192878187DC0116967C936E9319
:100E7000159723853485232B29F41B968D919C91FE
:100E800094878387CF0108958F929F92AF92BF92EC
:100E90000F931F93CF93DF93CDB7DEB7A1970FB614
:100EA000F894DEBF0FBECDBF19A2423008F44AE06D
:100EB0008E010F5D1F4F842E912CB12CA12CA5010A
:100EC00094010E948A14E62FB901CA01EA3044F560
:100ED000E05DD801EE938D01232B242B252B79F790
:100EE00090E080E0109769F0FD0101900020E9F7A3
:100EF0003197AF014A1B5B0BBD018EE796E00E9464
:100F00001A02A1960FB6F894DEBF0FBECDBFDF91D7
:100F1000CF911F910F91BF90AF909F908F900895A8
:100F2000E95CD7CF009769F0FC0101900020E9F758
:100F30003197AF01481B590BBC018EE796E00C942A
:100F40001A0290E080E00895CF93DF93EC0160E017
:100F50008E810E94DA0261E08E810E94DA0260E0F6
:100F60008E810E94DA028BE891E00197F1F7DF9120
:100F7000CF910895CF92DF92EF92FF920F931F933C
:100F8000CF93DF936C017C0187E0E80EF11CD0E089
:100F9000C0E0062F10E0B8010C2E02C075956795D1
:100FA0000A94E2F76170F70181917F010E94DA02F1
:100FB0002196C430D10579F7C601DF91CF911F91F9
:100FC0000F91FF90EF90DF90CF900C94A407CF92F9
:100FD000DF92EF92FF920F931F93CF93DF93EC0179
:100FE000F62E642F8C810E94DA028D818F3F19F0DA
:100FF00060E00E94DA020F2D10E08F8584FF25C08B
:101000006E0187E0C80ED11CF12CE12CB8010E2C2A
:1010100002C0759567950A94E2F76170F6018191B7
:101020006F010E94DA02FFEFEF1AFF0A88E0E8166C
:10103000F10461F7CE01DF91CF911F910F91FF90E5
:10104000EF90DF90CF900C94A407B80184E07595E1
:1010500067958A95E1F7CE010E94BA076F2DCE0100
:10106000DF91CF911F910F91FF90EF90DF90CF9084
:101070000C94BA0740E0682F8EE796E00C94E707DF
:1010800081E00E943A088BE39FE10197F1F7089510
:10109000CF92DF92EF92FF927C010E944008F7010D
:1010A00080819181DC01E091F805F091F9052D91A5
:1010B000222309F487C031912317C9F322E08C342D
:1010C000920741F486E392E0FF90EF90DF90CF909B
:1010D0000C94920722E08734920719F487E492E097
:1010E000F3CF22E08235920719F48DE592E0ECCF40
:1010F00022E08438920719F48BE692E0E5CF22E0F3
:101100008F37920719F48DE892E0DECF22E08E3916
:10111000920719F48BEA92E0D7CF22E08B3B92073B
:1011200019F48FEB92E0D0CF22E0863C920719F4BD
:101130008DEC92E0C9CF22E0873D920719F480EE52
:1011400092E0C2CF22E08C3E920719F483EF92E046
:10115000BBCF23E08530920719F48BE093E0B4CF46
:1011600023E08C31920719F482E293E0ADCF23E0C3
:101170008333920719F48CE393E0A6CF23E0803504
:10118000920719F488E593E09FCF23E08A3692070F
:1011900019F48FE693E098CF23E08238920719F490
:1011A0008AE893E091CF23E08C39920719F486EA1C
:1011B00093E08ACF8B5B9340D1F3FF90EF90DF9069
:1011C000CF90089588EC93E07FCFCF93DF93823068
:1011D00029F490918D06986090938D0680939106E6
:1011E0001092920680E48093930680E180939406A7
:1011F00080E58093950661E0809182060E940C0351
:10120000809183068F3F19F061E00E940C0361E03A
:10121000809184060E940C03CEE7D6E09E012E57F3
:10122000364080918D0684FD0BC084E090E02196CD
:101230002817390744F461E08E810E940C03EECF39
:1012400088E090E0F4CF8BE39DE00197F1F760E058
:10125000809182060E94DA0260E0809184060E94FA
:10126000DA02809183068F3F19F060E00E94DA0273
:1012700080918D0684FD34C063E08EE796E00E9485
:10128000BA07CBE4D6E4CE010197F1F763E08EE72D
:1012900096E00E94BA072197F1F763E08EE796E0A7
:1012A0000E94BA0783E592E00197F1F762E08EE7CA
:1012B00096E00E94BA0780918D0680620E943A08EB
:1012C00084E080938E068CE00E943A080E944008D9
:1012D00082E080938F0686E0DF91CF910C943A08EC
:1012E00080620E943A088BE496E40197F1F78091BE
:1012F0008D0680620E943A0883E592E00197F1F73B
:1013000080918D0680620E943A08D5CFE0919106C7
:10131000E23048F4E150F0E0E258F94F9489890F47
:1013200080680C943A08E1E0F6CF41E00E94E707BC
:1013300081E090E00895CF92DF92EF92FF926B01EF
:101340007C0141E06DE28EE796E00E94E7076627A8
:101350007727CB016C197D098E099F094AE00E940D
:1013600044070196FF90EF90DF90CF900895BC0165
:10137000990F880B990B97FD0C949B094AE00C94EC
:101380004407FC0124813581232B39F421E0FB0142
:101390008081882349F020E007C0808191810E94EC
:1013A000DE1621E0892BB9F7822F0895FC01808198
:1013B0009181009711F00C946B1508950F931F9372
:1013C000CF93DF93EC0188819981009759F02A81AE
:1013D0003B812617370730F081E0DF91CF911F91D5
:1013E0000F9108958B016F5F7F4F0E94F415009756
:1013F00059F0998388831B830A832C813D81232B99
:1014000059F7FC011082E8CF80E0E7CFEF92FF921E
:101410000F931F93CF93DF93EC017B018A01BA01F5
:101420000E94DE0928813981811114C021153105FE
:1014300019F0C9010E946B15198218821D821C8245
:101440001B821A82CE01DF91CF911F910F91FF90E5
:10145000EF9008951D830C83B701C9010E94E71620
:10146000F1CF2F923F924F925F926F927F928F9225
:101470009F92AF92BF92CF92DF92EF92FF920F9323
:101480001F93CF93DF93CDB7DEB72E970FB6F894A7
:10149000DEBF0FBECDBF8C010E94400889ED93E0F6
:1014A0000E94920781E00E948609F8018081918163
:1014B0000E94920768EE73E080E090E00E94C8040A
:1014C000F801608171816115710509F4D1C0FB01DA
:1014D00001900020E9F73197AF01461B570B8CE6CE
:1014E00094E00E94060A10921902109218021886BF
:1014F0001F821A8619861C861B8660916C04709167
:101500006D046115710541F04091700450917104B2
:10151000CE0107960E94060A1A8219821C821B823B
:101520001E821D8250E040E064E073E0CE0101962F
:101530000E94060A0E9440088DEE93E00E949207E6
:1015400068EE73E080E090E00E94C8040E944008CA
:1015500080E7282E87E1382E90EA692E9FE0792EC9
:1015600028EE422E23E0522E38EBE32E3BE0F32E02
:1015700040EDC42E47E0D42E58E8852E53E1952E39
:1015800000911802109119020115110509F038C3D4
:101590000E944C03B82E882399F3F3E48F130EC3F3
:1015A00089819A81009709F478C00E941C14709375
:1015B00047046093460468EE73E080E090E00E9488
:1015C000C8040E9440088AEF93E00E94920780E0DE
:1015D0000E94860989819A81009709F462C00E945D
:1015E0001C1497FF61C00E949B0968EE73E080E0C5
:1015F00090E00E94C8040E9440086CEE72E0CE01A8
:1016000007960E94C109882309F452C08CE094E037
:101610000E94920781E00E94860980914604909181
:1016200047049C01289DC001299D900D389D900D77
:1016300011240E94B709B12CA12C809146049091ED
:101640004704A816B906A4F56091690470916A046C
:1016500080916B0446E150E00E94A30660ED77E0C4
:1016600080E090E00E94C8043FEFA31AB30AE5CFE0
:1016700080916C0490916D04009711F00E946B159D
:1016800010926D0410926C04109271041092700408
:1016900010926F0410926E0426CF60E070E0CB01D0
:1016A00086CF60E070E0CB014AE00E9444079DCF06
:1016B00065E073E0CE0107960E94C109882391F18D
:1016C0008CE094E00E94920781E00E94860980915C
:1016D000460490914704FC01EE9DC001EF9D900DE2
:1016E000FE9D900D11240E94B709B12CA12C809170
:1016F000460490914704A816B906A4F460916604C4
:10170000709167048091680447E150E00E94A3064D
:1017100060ED77E080E090E00E94C804FFEFAF1A30
:10172000BF0AE5CF6CE173E0CE0107960E94C109C4
:10173000882391F18CE094E00E94920781E00E945E
:10174000860980914604909147049C012C9DC0011C
:101750002D9D900D3C9D900D11240E94B709B12C38
:10176000A12C8091460490914704A816B906A4F4D0
:1017700060916304709164048091650448E150E0D5
:101780000E94A30660ED77E080E090E00E94C8042C
:101790003FEFA31AB30AE5CF6BEB72E0CE010796D9
:1017A0000E94C109882391F18CE094E00E94920785
:1017B00081E00E9486098091460490914704FC01D3
:1017C000EC9DC001ED9D900DFC9D900D11240E949B
:1017D000B709B12CA12C8091460490914704A8161A
:1017E000B906A4F460916004709161048091620470
:1017F00049E150E00E94A30660ED77E080E090E0D0
:101800000E94C804FFEFAF1ABF0AE5CF66EC72E092
:10181000CE0107960E94C109882391F18CE094E0E3
:101820000E94920781E00E9486098091460490916F
:1018300047049C01289DC001299D900D389D900D65
:1018400011240E94B709B12CA12C809146049091DB
:101850004704A816B906A4F460915D0470915E0473
:1018600080915F044AE150E00E94A30660ED77E0BA
:1018700080E090E00E94C8043FEFA31AB30AE5CFCE
:1018800067ED72E0CE0107960E94C109882391F1AD
:101890008CE094E00E94920781E00E94860980918A
:1018A000460490914704FC01EC9DC001ED9D900D14
:1018B000FC9D900D11240E94B709B12CA12C8091A0
:1018C000460490914704A816B906A4F460915A04FE
:1018D00070915B0480915C044BE150E00E94A30690
:1018E00060ED77E080E090E00E94C804FFEFAF1A5F
:1018F000BF0AE5CF63E373E0CE0107960E94C109FA
:10190000882391F18CE094E00E94920781E00E948C
:10191000860980914604909147049C012E9DC00148
:101920002F9D900D3E9D900D11240E94B709B12C62
:10193000A12C8091460490914704A816B906A4F4FE
:101940006091570470915804809159044CE150E023
:101950000E94A30660ED77E080E090E00E94C8045A
:101960003FEFA31AB30AE5CF60E573E0CE01079617
:101970000E94C109882391F18CE094E00E949207B3
:1019800081E00E9486098091460490914704FC0101
:10199000EE9DC001EF9D900DFE9D900D11240E94C3
:1019A000B709B12CA12C8091460490914704A81648
:1019B000B906A4F4609154047091550480915604C2
:1019C00042E250E00E94A30660ED77E080E090E004
:1019D0000E94C804FFEFAF1ABF0AE5CF6AE673E0C2
:1019E000CE0107960E94C109882391F18CE094E012
:1019F0000E94920781E00E9486098091460490919E
:101A000047049C01249DC001259D900D349D900D9F
:101A100011240E94B709B12CA12C80914604909109
:101A20004704A816B906A4F46091510470915204B9
:101A3000809153044DE150E00E94A30660ED77E0F1
:101A400080E090E00E94C8043FEFA31AB30AE5CFFC
:101A500062E873E0CE0107960E94C109882391F1E4
:101A60008CE094E00E94920781E00E9486098091B8
:101A7000460490914704FC01E69DC001E79D900D4E
:101A8000F69D900D11240E94B709B12CA12C8091D4
:101A9000460490914704A816B906A4F460914E0438
:101AA00070914F04809150044EE150E00E94A306D3
:101AB00060ED77E080E090E00E94C804FFEFAF1A8D
:101AC000BF0AE5CF6CE973E0CE0107960E94C10919
:101AD000882391F18CE094E00E94920781E00E94BB
:101AE000860980914604909147049C01269DC0017F
:101AF000279D900D369D900D11240E94B709B12CA1
:101B0000A12C8091460490914704A816B906A4F42C
:101B100060914B0470914C0480914D044FE150E072
:101B20000E94A30660ED77E080E090E00E94C80488
:101B30003FEFA31AB30AE5CF6BEB73E0CE01079634
:101B40000E94C109882379F18CE094E00E949207F9
:101B500081E00E9486098091460490914704FC012F
:101B6000E29DC001E39D900DF29D900D11240E9415
:101B7000B7098091460490914704081719079CF40F
:101B8000609148047091490480914A0441E250E018
:101B90000E94A30660ED77E080E090E00E94C80418
:101BA0000F5F1F4FE6CF21E030E030931902209302
:101BB00018021092470410924604E2CC41E0682FCC
:101BC0008EE796E00E94E707BD861E860D811E8186
:101BD0000F5F1F4FB801CE0101960E94DE098823D6
:101BE00009F4CECC29813A818D819E81BE01635F4B
:101BF0007F4F820F931F0E94E7161E830D83C0CC78
:101C0000CE0101960E94D609CE0107960E94D60900
:101C10002E960FB6F894DEBF0FBECDBFDF91CF91E9
:101C20001F910F91FF90EF90DF90CF90BF90AF90FA
:101C30009F908F907F906F905F904F903F902F90EC
:101C400008951F920F920FB60F9211242F933F9376
:101C50008F939F93AF93BF9380910B0690910C0647
:101C6000A0910D06B0910E063091070523E0230FD9
:101C70002D3758F50196A11DB11D209307058093BE
:101C80000B0690930C06A0930D06B0930E06809160
:101C9000080590910905A0910A05B0910B050196E0
:101CA000A11DB11D8093080590930905A0930A0515
:101CB000B0930B05BF91AF919F918F913F912F9161
:101CC0000F900FBE0F901F90189526E8230F0296D5
:101CD000A11DB11DD2CF1F920F920FB60F921124EA
:101CE0000BB60F922F933F934F935F936F937F9316
:101CF0008F939F93AF93BF93EF93FF9348E251E08D
:101D000064E271E090E080E00E94E505FF91EF91D0
:101D1000BF91AF919F918F917F916F915F914F9103
:101D20003F912F910F900BBE0F900FBE0F901F9001
:101D300018951F920F920FB60F9211240BB60F92A7
:101D40002F933F934F935F936F937F938F939F93C3
:101D5000AF93BF93EF93FF9348EA50E064EA70E0DB
:101D600083E090E00E94E505FF91EF91BF91AF9174
:101D70009F918F917F916F915F914F913F912F91A3
:101D80000F900BBE0F900FBE0F901F9018951F92D3
:101D90000F920FB60F9211240BB60F922F933F9311
:101DA0004F935F936F937F938F939F93AF93BF9363
:101DB000EF93FF9348E950E064E970E082E090E03F
:101DC0000E94E505FF91EF91BF91AF919F918F9197
:101DD0007F916F915F914F913F912F910F900BBE2B
:101DE0000F900FBE0F901F9018951F920F920FB675
:101DF0000F9211240BB60F922F933F934F935F9343
:101E00006F937F938F939F93AF93BF93EF93FF93C2
:101E100048E850E064E870E081E090E00E94E50569
:101E2000FF91EF91BF91AF919F918F917F916F91B2
:101E30005F914F913F912F910F900BBE0F900FBE6E
:101E40000F901F901895FC0190917604903398F4B0
:101E500081E0890F809376049083892F90E0FC01C4
:101E6000EE0FFF1FE80FF91FE958FB4F88EB9BE0CF
:101E70009283818308958FEF80830895CF93DF93BA
:101E8000CDB7DEB72D970FB6F894DEBF0FBECDBF2E
:101E9000789484B5826084BD84B5816084BD85B545
:101EA000826085BD85B5816085BD80916E00816051
:101EB00080936E00109281008091810082608093F7
:101EC00081008091810081608093810080918000F9
:101ED0008160809380008091B10084608093B10024
:101EE0008091B00081608093B00080919100826009
:101EF0008093910080919100816080939100809106
:101F000090008160809390008091A1008260809316
:101F1000A1008091A10081608093A1008091A00028
:101F200081608093A00080912101826080932101D3
:101F30008091210181608093210180912001816045
:101F40008093200180917A00846080937A00809150
:101F50007A00826080937A0080917A008160809319
:101F60007A0080917A00806880937A001092C10094
:101F700082E00E94E50889E194E00E94920768EE01
:101F800073E080E090E00E94C8040E94400888EF5F
:101F900095E09093ED058093EC0589EE95E09093A4
:101FA00000068093FF058091F4059091F505892B3B
:101FB00041F480910306909104069093F505809377
:101FC000F4056CED75E089EE95E00E94310789EE2D
:101FD00095E09093D3058093D2058FEC95E0909394
:101FE000F1058093F0058091DA059091DB05892B4E
:101FF00041F48091F4059091F5059093DB05809371
:10200000DA0562EC75E08FEC95E00E9431078FEC09
:1020100095E09093B9058093B80585EB95E0909392
:10202000D7058093D6058091C0059091C105892B75
:1020300041F48091DA059091DB059093C10580937E
:10204000C00568EA75E085EB95E00E9431076BE911
:1020500075E00E94310782EC95E0909392058093A1
:1020600091058EE895E09093CA058093C90580910B
:10207000990590919A05892B41F48091CD05909115
:10208000CE0590939A058093990561E875E08EE8F6
:1020900095E00E94310764E775E00E9431078CEDFE
:1020A00095E090936B0580936A0587E695E09093A1
:1020B000E4058093E3058091720590917305892B67
:1020C00041F48091E7059091E80590937305809322
:1020D00072056AE575E087E695E00E94310787E6BC
:1020E00095E090935105809350058DE495E0909391
:1020F0006F0580936E058091580590915905892B45
:1021000041F48091720590917305909359058093E5
:10211000580560E475E08DE495E00E94310763E3C3
:1021200075E00E9431078AE595E090932A05809337
:10213000290586E295E09093620580936105809180
:10214000310590913205892B41F48091650590917C
:102150006605909332058093310569E175E086E26A
:1021600095E00E9431076CE075E00E9431078E0116
:102170000F5F1F4F80E0682E80E0782E96E1E92EF9
:10218000F12C27E1C22ED12C38E1A32EB12C49E14C
:10219000842E912C80911802909119020197A1F53B
:1021A0000E944C038823A1F08332A1F50E944008CD
:1021B00087E294E00E94920768EE73E080E090E08E
:1021C0000E94C8040E9440089092F7058092F6058C
:1021D00020910506309106068DE0F901D8010190A5
:1021E0000D928A95E1F78091F6059091F705873178
:1021F000910509F46FC00CF04DC0469709F475C005
:102200001092F7051092F6056114710419F20E94FC
:102210000000C0CF8A3299F40E9440088DE294E019
:102220000E94920768EE73E080E090E00E94C8048C
:102230000E944008B092F705A092F605C9CF8434F9
:1022400099F40E94400881E394E00E94920768EEAE
:1022500073E080E090E00E94C8040E944008D092A1
:10226000F705C092F605B4CF813409F0B1CF0E94D2
:10227000400887E394E00E94920768EE73E080E0F4
:1022800090E00E94C8040E944008F092F705E09296
:10229000F6059ECF88319105D1F0499709F0B0CF6E
:1022A000E885F985309729F114870387E0910506C1
:1022B000F091060687819085009719F40E9402022A
:1022C0009FCFDC011C96FC93EE931B97F7CF88EF12
:1022D00095E0F4CFF90185819681009779F3DC01CF
:1022E0001C963C932E931B97E9CFF901818592852B
:1022F000F4CFE0910906F0910A06309709F480CFF7
:10230000C90119957DCF10926D0410926C04109242
:102310006F0410926E04109271041092700450E0D9
:1023200040E064E073E08CE694E00E94060A89E6EF
:1023300094E00E94230F86E694E00E94230F83E638
:1023400094E00E94230F80E694E00E94230F8DE525
:1023500094E00E94230F8AE594E00E94230F87E512
:1023600094E00E94230F84E594E00E94230F81E50E
:1023700094E00E94230F8EE494E00E94230F8BE4EC
:1023800094E00E94230F88E494E00E94230F1092AF
:102390008106109280068EE292E090937F068093F1
:1023A0007E0680E1809382068FEF8093830681E131
:1023B0008093840682E18093850683E1809386067C
:1023C00084E18093870685E18093880610928906D0
:1023D00010928A0610928B0610928C0610928D062F
:1023E00081E00E94E50810921106109215061092E5
:1023F00014061092160684E292E0909310068093E1
:102400000F06EBE2F6E010821482138215823696F4
:1024100086E0E736F807B9F784E092E09093720619
:102420008093710680E092E0909374068093730627
:1024300084E0809375068093760688E092E090931E
:10244000700680936F068AE090E090937806809300
:10245000770684EF91E090937A0680937906109244
:102460007D0610927C0610926B0610926C061092FC
:102470006D0610926E0610927B068CE394E09093AA
:10248000F9058093F8051092FA0510920206109251
:102490000106109200061092FF051092FE051092A0
:1024A000FD051092FC051092FB0588EF95E09093D6
:1024B00006068093050688E498E0909308068093CA
:1024C000070681E39AE090930A06809309068CE45C
:1024D00092E09093EA058093E9051092EB05109243
:1024E000F3051092F2051092F1051092F00510928A
:1024F000EF051092EE051092ED051092EC0587E4C1
:1025000092E09093D0058093CF051092D105109260
:10251000D9051092D8051092D7051092D6051092C1
:10252000D5051092D4051092D3051092D2058CEEE9
:1025300092E09093B6058093B5051092B70510927E
:10254000BF051092BE051092BD051092BC051092F9
:10255000BB051092BA051092B9051092B80585E036
:1025600093E09093A9058093A8051092AA05109274
:10257000B2051092B1051092B0051092AF051092FD
:10258000AE051092AD051092AC051092AB058CE132
:1025900093E090939C0580939B0510929D0510926B
:1025A000A5051092A4051092A3051092A205109201
:1025B000A1051092A00510929F0510929E0582E53C
:1025C00092E09093C3058093C2051092C4051092C7
:1025D000CC051092CB051092CA051092C905109235
:1025E000C8051092C7051092C6051092C5058BEB61
:1025F00092E090938F0580938E0510929005109233
:1026000098051092970510929605109295051092D4
:10261000940510929305109292051092910586EC04
:1026200092E0909382058093810510928305109229
:102630008B0510928A0510928905109288051092D8
:10264000870510928605109285051092840587ED06
:1026500092E0909375058093740510927605109220
:102660007E0510927D0510927C0510927B051092DC
:102670007A0510927905109278051092770584E812
:1026800092E09093DD058093DC051092DE051092B8
:10269000E6051092E5051092E4051092E30510920C
:1026A000E2051092E1051092E0051092DF058FE738
:1026B00092E09093680580936705109269051092E7
:1026C00071051092700510926F0510926E051092B0
:1026D0006D0510926C0510926B0510926A0583E3EC
:1026E00093E090934E0580934D0510924F05109204
:1026F00057051092560510925505109254051092E8
:10270000530510925205109251051092500580E524
:1027100093E09093410580934005109242051092FA
:102720004A051092490510924805109247051092EB
:1027300046051092450510924405109243058AE61D
:1027400093E09093340580933305109235051092F1
:102750003D0510923C0510923B0510923A051092EF
:1027600039051092380510923705109236058EE91A
:1027700092E090935B0580935A0510925C0510924D
:102780006405109263051092620510926105109223
:10279000600510925F0510925E0510925D0582E85B
:1027A00093E09093270580932605109228051092B8
:1027B000300510922F0510922E0510922D051092C3
:1027C0002C0510922B0510922A05109229058CE9F0
:1027D00093E090931A058093190510921B051092AF
:1027E00023051092220510922105109220051092C7
:1027F0001F0510921E0510921D0510921C058BEBF3
:1028000093E090930D0580930C0510920E051092A5
:1028100016051092150510921405109213051092CA
:102820001205109211051092100510920F050895CF
:102830008CE694E00C94D6091F93FC019927882715
:10284000BC01E89411911032E9F3193010F01E30F8
:10285000C8F31B3251F01D3249F4689406C00E943F
:102860004314610F711D811D911D119110531A3078
:10287000B0F33EF490958095709561957F4F8F4FA2
:102880009F4F1F910895592F482F372F262F660FDE
:10289000771F881F991F660F771F881F991F620F68
:1028A000731F841F951F660F771F881F991F089538
:1028B000052E97FB1EF400940E946F1457FD07D05D
:1028C0000E948A1407FC03D04EF40C946F145095A8
:1028D0004095309521953F4F4F4F5F4F089590950C
:1028E0008095709561957F4F8F4F9F4F08950E94FF
:1028F000AC14A59F900DB49F900DA49F800D911DC9
:1029000011240895B7FF0C9477140E947714821B4A
:10291000930B0895A1E21A2EAA1BBB1BFD010DC04B
:10292000AA1FBB1FEE1FFF1FA217B307E407F5077F
:1029300020F0A21BB30BE40BF50B661F771F881F5B
:10294000991F1A9469F760957095809590959B01F1
:10295000AC01BD01CF010895A29FB001B39FC0019A
:10296000A39F700D811D1124911DB29F700D811DBB
:102970001124911D0895991B79E004C0991F9617A1
:1029800008F0961B881F7A95C9F780950895EE0F79
:10299000FF1F881F8BBF0790F691E02D19940F93AE
:1029A0001F93CF93DF938230910510F482E090E083
:1029B000E0919806F091990630E020E0B0E0A0E0C8
:1029C000309799F42115310509F44AC0281B390BB9
:1029D00024303105D8F58A819B816115710589F113
:1029E000FB0193838283FE0111C0408151810281EA
:1029F000138148175907E0F04817590799F41097C1
:102A000061F012960C93129713961C933296CF0195
:102A1000DF91CF911F910F91089500939806109325
:102A20009906F4CF2115310551F04217530738F0BC
:102A3000A901DB019A01BD01DF01F801C1CFEF015E
:102A4000F9CF9093990680939806CDCFFE01E20FBF
:102A5000F31F819391932250310939832883D7CF73
:102A60002091960630919706232B41F420911C0269
:102A700030911D02309397062093960620911A02FA
:102A800030911B022115310541F42DB73EB740911D
:102A90001E0250911F02241B350BE0919606F09107
:102AA0009706E217F307A0F42E1B3F0B28173907F0
:102AB00078F0AC014E5F5F4F2417350748F04E0F9A
:102AC0005F1F5093970640939606819391939FCFF3
:102AD000F0E0E0E09CCFCF93DF930097E9F0FC01BA
:102AE000329713821282A0919806B0919906ED0157
:102AF00030E020E01097A1F420813181820F931FF4
:102B000020919606309197062817390709F061C081
:102B1000F0939706E0939606DF91CF910895EA012E
:102B2000CE17DF07E8F54A815B819E01411551050B
:102B3000B1F7E901FB83EA8349915991C40FD51F8D
:102B4000EC17FD0761F4808191810296840F951F37
:102B5000E90199838883828193819B838A83F0E052
:102B6000E0E012968D919C9113970097B9F52D9105
:102B70003C911197CD010296820F931F20919606EA
:102B8000309197062817390739F6309751F510928A
:102B9000990610929806B0939706A0939606BCCF1C
:102BA000D383C28340815181840F951FC817D907F1
:102BB00061F44E5F5F4F88819981480F591F51839F
:102BC00040838A819B81938382832115310509F09B
:102BD000B0CFF0939906E09398069ECFFD01DC01FB
:102BE000C0CF13821282D7CF4F925F926F927F92A3
:102BF0008F929F92AF92BF92CF92DF92EF92FF920D
:102C00000F931F93CF93DF938C01009799F4CB011F
:102C1000DF91CF911F910F91FF90EF90DF90CF90B8
:102C2000BF90AF909F908F907F906F905F904F90EC
:102C30000C94CF14FC01E60FF71F9C0122503109C0
:102C4000E217F30708F4AEC0D901CD91DC911197DA
:102C5000C617D70720F1C530D10578F0CE0104970B
:102C60008617970750F0C61BD70B2297C193D193B5
:102C70006D937C93CF010E946B15C801DF91CF91BA
:102C80001F910F91FF90EF90DF90CF90BF90AF908A
:102C90009F908F907F906F905F904F9008955B0111
:102CA000AC1ABD0A4C018C0E9D1EA0919806B091E5
:102CB0009906512C412CF12CE12C109731F5809183
:102CC0009606909197068815990509F05CC04616FE
:102CD000570608F058C080911A0290911B02009785
:102CE00041F48DB79EB740911E0250911F02841B84
:102CF000950BE817F90708F055C0F0939706E09395
:102D00009606F90171836083B8CF8D919C911197DC
:102D100012966C90129713967C901397A815B9058C
:102D200059F56C0142E0C40ED11CCA14DB0420F139
:102D3000AC014A195B09DA011296159780F062829C
:102D4000738251834083D9016D937C93E114F10424
:102D500071F0D7011396FC93EE9312978ECF2296C3
:102D60008C0F9D1FF90191838083F301EFCFF093C6
:102D70009906E093980681CF4816590608F42C016D
:102D80007D01D3019ACFCB010E94CF147C01009723
:102D900049F0AE01B8010E94D516C8010E946B151A
:102DA00087016BCF10E000E068CFFB01DC0102C0BF
:102DB00001900D9241505040D8F70895FB01DC017D
:102DC0008D91019080190110D9F3990B0895FB01A1
:102DD000DC0101900D920020E1F7089511E0CBE3B2
:102DE000D1E000E006C0802FFE010E94C7142196AA
:102DF000011DCC33D10780E00807A9F7F894FFCF75
:102E000003020100040506073738394334353642DA
:102E1000313233412A302344010000009A068000F9
:102E20000000000048030803D702000000009509D5
:102E30001A02A0069F064472696E6B202020202093
:102E400020202020202000436F6C64204472696E93
:102E50006B005761726D204472696E6B005761722E
:102E60006D204472696E6B2020200053616E647780
:102E7000696368202020202020202020202000437B
:102E80006F6C642053616E647769636800436F6C94
:102E9000642053616E647769636820202000686F46
:102EA000742053616E647769636800686F7420539F
:102EB000616E647769636820202000546561005466
:102EC000656120202000436F6666656500436F667C
:102ED000666565202020004E6573636F666565003A
:102EE0004E6573636F666565202020006F72616EAA
:102EF0006765006F72616E676520202020202020AA
:102F000020202020006170706C65006170706C651D
:102F100020202020202020202020200062657272A6
:102F200079006265727279202020202020202020E4
:102F30002020006F6C6F7669796568006F6C6F7622
:102F40006979656820202020202020202020200072
:102F5000636869636B656E00636869636B656E20A7
:102F6000202020202020202020006D656174006337
:102F70006869636B656E202020202020202020209F
:102F80002000686F7420646F6700686F7420646F3E
:102F900067202020202020202020200068616D62F2
:102FA00065726765720068616D626572676572203F
:102FB00020202020202020202020006368656573C9
:102FC00065627572677572004D61696E204D656E40
:102FD000752020202020202000596F752063686F05
:102FE0006F736564202020202020202000656E74EF
:102FF0006572206E756D626572006E756D626572C8
:1030000020796F752077616E743A200066696E6171
:103010006C20636F73743A200048656C6C6F2056A7
:10302000656E64696E6700656E74657200657363D2
:10303000007269676874006C656674004D656E7532
:06304000526F6F740000E6
:00000001FF
